:020000040800F2
:100000000000022055280008592400085B2400083D
:100010005D2400085F24000861240008000000003F
:100020000000000000000000000000006324000841
:100030006524000800000000672400086924000807
:10004000A5280008A5280008A5280008A52800085C
:10005000A5280008A5280008A5280008A52800084C
:10006000A5280008A5280008A5280008A52800083C
:10007000A5280008A5280008A5280008A52800082C
:10008000A5280008A5280008A5280008A52800081C
:10009000A5280008A5280008A5280008A52800080C
:1000A000A52800086D24000879240008A528000868
:1000B000A5280008A5280008A5280008A5280008EC
:1000C000A5280008A5280008A5280008A5280008DC
:1000D000A5280008A528000885240008A5280008F0
:1000E000A5280008A5280008A5280008A5280008BC
:1000F000A5280008A5280008A5280008A5280008AC
:10010000A5280008A5280008A5280008A52800089B
:10011000A5280008A5280008A5280008A52800088B
:10012000A5280008A5280008A5280008A52800087B
:10013000A52800080000000000000000A528000815
:10014000A5280008A5280008A5280008A52800085B
:10015000A5280008A5280008A5280008A52800084B
:10016000A5280008A5280008A5280008A52800083B
:10017000A5280008A5280008A52800080000000000
:1001800000000000A528000800000000000000009A
:10019000A52800080000000000000000A5280008B5
:1001A000000000000000000000000000A52800087A
:1001B000A5280008A5280008A5280008A5280008EB
:0401C000A528000866
:1001D00010B5054C237833B9044B13B10448AFF381
:1001E00000800123237010BD880000200000000063
:1001F0007831000808B5034B1BB103490348AFF33E
:10020000008008BD000000008C000020783100084C
:1002100001F0FF01102A2BDB10F0070F08D010F8B7
:10022000013B013A8B422DD010F0070F42B3F6D1BB
:10023000F0B441EA012141EA014122F007047FF0D4
:1002400000070023F0E80256083C85EA010586EA2B
:10025000010685FA47F5A3FA87F586FA47F6A5FA67
:1002600087F68EB9EED1F0BC01F0FF0102F0070273
:1002700032B110F8013B013A83EA010313B1F8D11E
:100280000020704701387047002D06BF35460338FF
:10029000073815F0010F07D1013015F4807F02BF38
:1002A000013015F4C03F0130F0BC0138704700BF89
:1002B00053B94AB9002908BF00281CBF4FF0FF31CD
:1002C0004FF0FF3000F07AB9ADF1080C6DE904CEC3
:1002D00000F006F8DDF804E0DDE9022304B0704721
:1002E0002DE9F0478C460D460446089E002B51D15F
:1002F0008A4217466DD9B2FA82FEBEF1000F0BD0CA
:10030000CEF1200C01FA0EF520FA0CFC02FA0EF7E1
:100310004CEA050C00FA0EF44FEA174A250CBCFB18
:10032000FAF81FFA87F90AFB18CC45EA0C4508FBD6
:1003300009F3AB420AD9ED1908F1FF3280F02381AD
:10034000AB4240F22081A8F102083D44ED1AA4B26C
:10035000B5FBFAF00AFB105544EA054400FB09F925
:10036000A14509D9E41900F1FF3380F00A81A145C4
:1003700040F2078102383C44A4EB090440EA0840FB
:100380000021002E61D024FA0EF400233460736043
:10039000BDE8F0878B4207D9002E54D0002186E8B3
:1003A00021000846BDE8F087B3FA83F1002940F048
:1003B0008E80AB4202D3824200F2FA80841A65EB4F
:1003C00003050120AC46002E3FD086E81010BDE8A2
:1003D000F08712B90127B7FBF2F7B7FA87FEBEF133
:1003E000000F34D1EB1B3A0C1FFA87FC0121B3FB41
:1003F000F2F8250C02FB183345EA03450CFB08F321
:10040000AB4207D9ED1908F1FF3002D2AB4200F23E
:10041000D1808046ED1AA3B2B5FBF2F002FB105575
:1004200043EA05440CFB00FCA44507D9E41900F19C
:10043000FF3302D2A44500F2B8801846A4EB0C04A6
:1004400040EA08409DE731463046BDE8F087CEF1EE
:10045000200405FA0EF307FA0EF720FA04F83A0C16
:1004600025FA04F448EA0308B4FBF2F14FEA184510
:1004700002FB11441FFA87FC45EA044501FB0CF31B
:10048000AB4200FA0EF409D9ED1901F1FF3080F00A
:100490008A80AB4240F2878002393D44EB1A1FFA52
:1004A00088F5B3FBF2F002FB103345EA034500FB8D
:1004B0000CF3AB4207D9ED1900F1FF386FD2AB4214
:1004C0006DD902383D44EB1A40EA01418FE7C1F192
:1004D000200722FA07F88B4005FA01F448EA0303E3
:1004E00020FA07FE4FEA134CFD404EEA040EB5FB1E
:1004F000FCF94FEA1E440CFB19551FFA83F844EA35
:10050000054509FB08F4AC4202FA01F200FA01FACF
:1005100008D9ED1809F1FF3043D2AC4241D9A9F115
:1005200002091D442D1B1FFA8EFEB5FBFCF00CFBCF
:1005300010554EEA054400FB08F8A04507D9E41819
:1005400000F1FF3529D2A04527D902381C4440EAE2
:100550000940A4EB0804A0FB02894C45C6464D4661
:1005600015D312D056B1BAEB0E0364EB050404FAAE
:1005700007F7CB401F43CC40376074600021BDE8D3
:10058000F0871846F8E69046E0E6C245EAD2B8EBB6
:10059000020E69EB03050138E4E72846D7E7404639
:1005A00091E78146BEE7014678E702383C4445E7DB
:1005B000084608E7A8F102083D442BE7704700BF52
:1005C00038B50E4A0E4B054618784FF47A73B3FBD4
:1005D000F0F31068B0FBF3F000F096F8044658B959
:1005E0000F2D09D8024629464FF0FF3000F04AF897
:1005F000044B20461D6038BD012038BD200000207E
:10060000000000200400002008B50B4B1A6842F4DB
:1006100000721A601A6842F480621A601A6842F422
:1006200080721A60032000F01BF80020FFF7C8FF5B
:1006300001F0F2FE002008BD003C0240034A044BDA
:1006400011681B780B441360704700BFCC0000207A
:1006500000000020014B1868704700BFCC0000204C
:10066000074AD36823F4E0631B041B0C43F0BF6309
:10067000000243F4003300F4E0600343D3607047AA
:1006800000ED00E0174B30B5DC68C4F30224C4F180
:100690000703251D042B28BF0423062D4FF0010559
:1006A00005FA03F303F1FF338CBF033C0024194028
:1006B000A14005FA04F4013C2240002842EA01026C
:1006C0004FEA0212ADBF00F1604000F00F00064B90
:1006D00000F56140B5BFD2B2D2B21A5480F80023FF
:1006E00030BD00BF00ED00E014ED00E0002808DBA5
:1006F0004209012300F01F0003FA00F0014B43F808
:100700002200704700E100E00138B0F1807F0AD29A
:10071000064B074A5860F02182F823100020072278
:1007200098601A6070470120704700BF10E000E039
:1007300000ED00E090F83530022B03D080234365B4
:10074000012070470268052380F83530136823F0D4
:1007500001031360002070472DE9F04F85B00B684E
:10076000DFF8A081654ADFF8A091019300230124FE
:10077000019D9C402540AC4240F0AC804C6824F088
:10078000100C0CF1FF36012E4FEA430E12D8876889
:10079000032606FA0EF627EA0607CE6806FA0EF6D4
:1007A0003E4386604768C4F3001627EA05079E406B
:1007B0003E4346600326C76806FA0EF6F64307EA8C
:1007C000060A8F6807FA0EF747EA0A07BCF1020F1C
:1007D000C76016D14FEAD30A00EB8A0A03F0070B71
:1007E000DAF820704FEA8B0B4FF00F0C0CFA0BFC71
:1007F00027EA0C0C0F6907FA0BF747EA0C07CAF84F
:10080000207007683E4004F0030707FA0EFE4EEA28
:1008100006060660E6005DD54FF0000BCDF80CB083
:10082000D8F84470364E47F48047C8F84470D8F87A
:10083000447007F480470397039F23F0030707F1F1
:10084000804707F59C3703F0030CD7F808A04FEA60
:100850008C0C4FF00F0E0EFA0CFEB0422AEA0E0E70
:100860003FD006F58066B0423DD006F58066B042C6
:100870003BD006F58066B04239D006F58066B042BE
:1008800037D0484537D006F50066B04214BF07267A
:10089000062606FA0CF646EA0E06BE601668EF4318
:1008A00014F4803F0CBF3E402E431660566814F48B
:1008B000003F0CBF3E402E435660966814F4801FE4
:1008C0000CBF3E402E439660D668A40254BF3E4003
:1008D0002E43D6600133102B7FF449AF05B0BDE83D
:1008E000F08F5E46D5E70126D3E70226D1E703263F
:1008F000CFE70426CDE70526CBE700BF003C01404B
:10090000000002400038024000140240036919420E
:1009100014BF0120002070470AB1816170470904AB
:10092000FBE700002DE9F0410D46044610B9012017
:10093000BDE8F081444B1A6802F00F028A4229D3C5
:1009400021688F072ED4C80741D43F4B1A6802F0A4
:100950000F02954267D3226851076DD4130707D55C
:100960003A4A2169936823F4604343EAC1039360E0
:1009700000F094F8354B364A9B68C3F30313D35CFD
:10098000D840344B1860344B1868FFF719FE00202C
:10099000BDE8F081CAB21A701B6803F00F039942D8
:1009A000C5D1CDE7294B11F0040F1EBF9A6842F460
:1009B000E0529A600E0742BF9A6842F460429A6021
:1009C0009A68A06822F0F00202439A60BBE762686E
:1009D0001E4B012A1DD11B6813F4003FA7D01B4EEC
:1009E000B36823F003031343B360FFF733FE41F210
:1009F00088380746B368626803F00C03B3EB820FD4
:100A0000A3D0FFF727FEC01B4045F3D90320BDE864
:100A1000F081911E01291B6802D813F0007FDDE7E9
:100A200013F0020FDAE7EAB21A701B6803F00F0343
:100A30009D427FF47CAF8EE70449E0688B6823F425
:100A4000E05303438B6089E7003C024000380240DA
:100A5000503200082000002004000020044B054A0A
:100A60009B68C3F38223D35C034A1068D840704765
:100A7000003802406032000820000020044B054A84
:100A80009B68C3F34233D35C034A1068D840704775
:100A9000003802406032000820000020204908B5DC
:100AA0008B6803F00C03082B07D00C2B20D01D4AB9
:100AB0001D48042B18BF104608BD4A684B6849689A
:100AC00013F4800314BF18481648C1F3881118BFE7
:100AD000002302F03F02A1FB0001FFF7E9FB104BEE
:100AE0005B68C3F3014301335B00B0FBF3F008BD67
:100AF0004A684B68496813F4800314BF0A480948E0
:100B0000C1F3881118BF002302F03F02A1FB0001CE
:100B1000FFF7CEFB024B5B68C3F30273E5E700BF50
:100B2000003802400024F40000127A0003682DE926
:100B3000F341DF07044610D423689E0767D4236877
:100B40001A0700F1B28023685B0700F1D080A26928
:100B5000002A40F0398100201EE0974B9A6802F08D
:100B60000C02042A10D09A6802F00C02082A02D162
:100B70005B685D0208D4904B9A6802F00C020C2A64
:100B80000DD15A6850020AD58B4B1B689903D3D5F7
:100B90006368002BD0D1012002B0BDE8F08162680B
:100BA000B2F5803F11D11A6842F480321A60FFF723
:100BB00051FD814D06462B689A03BDD4FFF74AFDCF
:100BC000801B6428F7D90320E6E77B4DB2F5A02F00
:100BD0002B6807D143F480232B602B6843F48033C8
:100BE0002B60E4E723F480332B602B6823F480230D
:100BF0002B60002ADBD1FFF72DFD06462B689B03F7
:100C00009AD5FFF727FD801B6428F7D9DBE76A4BED
:100C10009A6812F00C0F10D09A6802F00C02082AA1
:100C200002D15B685F0208D5634A936803F00C0346
:100C30000C2B11D153685E020ED45F4B1A689507D6
:100C400002D5E268012AA6D11A68216922F0F802C9
:100C500042EAC1021A6072E7E268584BB2B101225F
:100C60001A60FFF7F7FC544D06462B68980707D526
:100C70002B68226923F0F80343EAC2032B605EE786
:100C8000FFF7E8FC801B0228EFD99CE71A60FFF70A
:100C9000E1FC494D06462B6899077FF550AFFFF7F9
:100CA000D9FC801B0228F6D98DE76269444B7AB1E2
:100CB00001221A60FFF7CEFC3F4D06466B6F9F077F
:100CC0003FF541AFFFF7C6FC801B0228F6D97AE753
:100CD0001A60FFF7BFFC384D06466B6F98077FF52B
:100CE00032AFFFF7B7FC801B0228F6D96BE7324B17
:100CF0001A6C12F0805228D101921A6C42F0805284
:100D00001A641B6C03F080530193019B01262D4D47
:100D10002B68D9051BD5A368274D012B27D12B6F35
:100D200043F001032B67FFF795FC234D074641F283
:100D300088382B6F9B0739D5002E3FF408AF1E4A29
:100D4000136C23F08053136401E70026DFE72B6860
:100D500043F480732B60FFF77DFC07462B68DA05B0
:100D6000D9D4FFF777FCC01B0228F7D92BE7052B56
:100D700004D12B6F43F004032B67D0E72A6F22F0D6
:100D800001022A672A6F22F004022A67002BCAD1C7
:100D9000FFF760FC41F2883807462B6F9807CBD5E8
:100DA000FFF758FCC01B4045F7D90CE7FFF752FC92
:100DB000C01B4045BDD906E700380240000047424D
:100DC000800E474200700040234DAB6803F00C03D7
:100DD000082B3FF4E0AE214E0023022A33602DD1D0
:100DE000FFF738FC07462B68990121D4226AE36992
:100DF0001343626A43EA8213E26A43EA0263226BA4
:100E000043EA0273A26A144C5208013A43EA0243CD
:100E10006B6001233360FFF71DFC054623689A01D0
:100E20003FF599AEFFF716FC401B0228F6D9CAE63B
:100E3000FFF710FCC01B0228D5D9C4E6FFF70AFC57
:100E400004462B689B017FF586AEFFF703FC001B71
:100E50000228F6D9B7E600BF0038024060004742DA
:100E6000036A23F001030362036A70B54468826970
:100E70000D6822F073022A438D6823F002032B438E
:100E80000E4DA84202D00E4EB04210D1CE6823F0D3
:100E900008033343A84223F0040302D0084DA842BC
:100EA00005D14D698E6924F4407435432C43446068
:100EB00082614A684263036270BD00BF0000014066
:100EC00000040140036A23F480730362036A70B56F
:100ED0004468C2690D6822F073022A438D6823F4C6
:100EE000007343EA0523114DA84203D005F5806540
:100EF000A84214D1CD6823F4006343EA05230B4DC7
:100F0000A84223F4806303D005F58065A84206D18A
:100F10004D698E6924F44054354344EA0514446015
:100F2000C2614A68C263036270BD00BF0000014035
:100F3000036A23F480530362036A30B54468C269CC
:100F40000D6822F4E64242EA05228D6823F400533C
:100F500043EA0533084DA84203D005F58065A84251
:100F600004D14D6924F4804444EA85144460C2618C
:100F70004A680264036230BD000001400368DA6819
:100F800042F00102DA609A6802F00702062A1EBFE8
:100F90001A6842F001021A6000207047036889B1A4
:100FA000042907D01A6A22F001021A621A6A42F072
:100FB00001021A621A6A22F010021A621A6A42F0D8
:100FC000100206E01A6A22F001021A621A6A42F05E
:100FD00001021A621A6842F001021A60002070478A
:100FE000704770477047704703681A69910710B5DA
:100FF00004460ED5DA6892070BD56FF002021A612B
:101000009B6901229B07027777D0FFF7EAFF002355
:10101000237723681A69500710D5DA6851070DD570
:101020006FF004021A619B69022213F4407F227759
:10103000204668D0FFF7D5FF0023237723681A697D
:1010400012070FD5DA6810070CD56FF008021A6185
:10105000DB6904229907227720465AD0FFF7C1FFA7
:101060000023237723681A69D20610D5DA68D006E0
:101070000DD56FF010021A61DB69082213F4407F6E
:10108000227720464BD0FFF7ACFF0023237723685D
:101090001A69D10708D5DA68D20705D56FF00102C1
:1010A0001A61204600F0C4FE23681A69100608D5AC
:1010B000DA68110605D56FF080021A61204600F04B
:1010C00024FA23681A69520608D5DA68500605D54D
:1010D0006FF040021A612046FFF785FF23681A6906
:1010E000910622D5DA6892061FD56FF020022046BD
:1010F0001A61BDE8104000F007BAFFF771FF204603
:10110000FFF770FF83E7FFF76BFF2046FFF76AFFEB
:1011100092E7FFF765FF2046FFF764FFA0E7FFF7C0
:101120005FFF2046FFF75EFFAFE710BD304A036860
:10113000904212D0B0F1804F0FD0A2F57C42904285
:101140000BD002F58062904207D002F58062904297
:1011500003D002F57842904219D14A6823F0700317
:101160001343234A904229D0B0F1804F26D0A2F5F4
:101170007C42904222D002F5806290421ED002F55D
:10118000806290421AD002F57842904216D0194AF5
:10119000904213D002F5806290420FD002F5806237
:1011A00090420BD0A2F59832904207D002F58062AF
:1011B000904203D002F58062904203D1CA6823F4C2
:1011C000407313434A6923F08003134303608B6821
:1011D000C3620B688362064B984203D003F58063B9
:1011E000984201D10B69036301234361704700BF3B
:1011F000000001400040014010B50446A0B190F845
:101200003D3003F0FF021BB980F83C2001F012FAD8
:10121000022384F83D302068211DFFF787FF01235A
:1012200084F83D30002010BD012010BD10B50446EB
:10123000A0B190F83D3003F0FF021BB980F83C20CC
:1012400001F0B0F9022384F83D302068211DFFF73A
:101250006DFF012384F83D30002010BD012010BD3A
:10126000F8B50C460546002843D090F83D3003F011
:10127000FF021BB980F83C2001F0AAF9294602239D
:1012800051F8040B85F83D30836823F4804323F044
:1012900007038360FFF74AFF28682368866882692E
:1012A000A168076A1E43A36922F4407222F0030278
:1012B00041EA0323134323F47C422369E1691B01C0
:1012C00043EA0123E1680B43216A22F0FC0243EA6E
:1012D00001331343616927F0AA026768866047EA11
:1012E0000117836117430123076285F83D30002011
:1012F000F8BD0120F8BD0000036A23F0100303626B
:10130000036A70B5446882690D6822F4E64242EAD5
:1013100005228D6823F0200343EA0513104DA842EF
:1013200003D005F58065A84214D1CD6823F0800371
:1013300043EA05130A4DA84223F0400303D005F504
:101340008065A84206D14D698E6924F44064354316
:1013500044EA8504446082614A688263036270BD26
:101360000000014038B590F83C30012B04464FF0A6
:10137000020025D0012384F83C3084F83D000C2A7B
:1013800018D8DFE802F0071717171E1717172F17BF
:10139000171740002068FFF763FD236809699A6901
:1013A00042F008029A619A6922F004029A619A69ED
:1013B0000A439A610123002084F83D3084F83C0000
:1013C00038BD2068FFF798FF236809699A6942F4DD
:1013D00000629A619A6922F480629A619A6942EA8B
:1013E0000122E6E72068FFF76DFD23680969DA69E5
:1013F00042F00802DA61DA6922F00402DA61DA699D
:101400000A43DA61D6E72068FFF792FD236809698D
:10141000DA6942F40062DA61DA6922F48062DA6140
:10142000DA6942EA0122ECE7036A01F01F0110B514
:1014300001248C4023EA04030362036A8A401A43AE
:10144000026210BD10B5044601220068FFF7ECFFF0
:1014500023680B4A93420ED002F5806293420AD071
:101460009A6802F00702062A03D01A6842F00102C5
:101470001A60002010BD5A6C42F400425A64EFE733
:101480000000014090F83C30012B30B54FF00203D2
:1014900035D080F83D3003680D685C6824F0700436
:1014A00001222C4380F83C209A685C60154CA342D2
:1014B0001AD0B3F1804F17D0A4F57C44A34213D0C7
:1014C00004F58064A3420FD004F58064A3420BD0DE
:1014D00004F57844A34207D004F57054A34203D026
:1014E000A4F59434A34204D1496822F080020A434F
:1014F0009A60012380F83D30002380F83C30184684
:1015000030BD00BF00000140704770470368DA68D3
:1015100022F49072DA605A6922F001025A612023A3
:1015200080F83A307047000038B50368C1681A691E
:10153000044622F440520A431A612569A268D96818
:10154000C0692A43656921F416412A4321F00C0140
:1015500002430A43DA605A69A16922F440720A43DD
:10156000B0F5004F5A61254A29D1934203D002F5C4
:101570008062934220D1FFF781FA62682568921851
:101580004FF000034FF019015B41A0FB0101FEF792
:101590008FFE6421B0FBF1F401FB1403DB00323356
:1015A000B3FBF1F303F007025B0002EB041203F458
:1015B000F8731344AB6038BDFFF750FADDE7934290
:1015C00002D00F4A934216D1FFF758FA6368256894
:1015D00019219A00A0FB01019B0FFEF769FE64220E
:1015E000B0FBF2F102FB11031B013233B3FBF2F348
:1015F00003EB0113DEE7FFF731FAE7E700100140E4
:1016000000140140F8B504460E4617461D462168F1
:101610000B6836EA030301D10020F8BD6B1CF7D03C
:1016200095B92368DA6822F4D072DA605A6922F038
:1016300001025A61202384F8393084F83A300023BB
:1016400084F838300320F8BDFFF704F8C01B85424A
:10165000DDD2E6E710B5044640B390F8393003F028
:10166000FF021BB980F8382001F0B6F82268242365
:1016700084F83930D36823F40053D3602046FFF751
:1016800053FF23681A6922F490421A615A6922F0C2
:101690002A025A61DA6842F40052DA6000202023FC
:1016A000E06384F8393084F83A3010BD012010BD71
:1016B0002DE9F8431F4690F83930202B04460D469B
:1016C000904651D100294CD0002A4AD090F83830A9
:1016D000012B49D0012380F838304FF00009212335
:1016E000C0F83C9080F83930FEF7B4FFA4F82480AD
:1016F0000646A4F8268084F83890E38C9BB25BB948
:101700003B46324640212046FFF77CFFA0B920230C
:1017100084F83930BDE8F883E38C013B9BB2E38465
:10172000A368B3F5805F32463B464FF08001204608
:101730000ED1FFF767FF10B10320BDE8F8832B88B7
:101740002268C3F308035360236943B90235D4E721
:10175000FFF758FF0028EFD123682A785A60013537
:10176000CBE70120BDE8F8830220BDE8F88390F8BC
:101770003930202B18D1A9B1A2B190F83830012B03
:1017800012D0C2840162828400230168C3632122D3
:1017900080F83920CA6880F8383042F08002CA6088
:1017A00018467047012070470220704790F83A3081
:1017B000202B20D1E9B1E2B190F83830012B1AD0BA
:1017C000C285828500232222C36380F83A20026802
:1017D0008162D16880F8383041F48071D1605169FC
:1017E00041F001015161D16841F02001D1601846FA
:1017F00070470120704702207047704790F83A30D8
:10180000222B10B536D1836801690268B3F5805F79
:10181000836A23D15268E9B9C2F3080223F8022B84
:101820008362C48D013CA4B2C4858CB90368DA68B4
:1018300022F02002DA60DA6822F48072DA605A69F3
:1018400022F001025A61202380F83A3000F04AFA6F
:10185000002010BDD2B223F8012BE1E721B9591CB9
:10186000526881621A70DCE75268591C816202F08A
:101870007F02F7E7022010BD7047000003681A6876
:10188000D96870B5160704465D6907D196065CD520
:101890008D065AD5BDE87040FFF7B0BF15F00105C1
:1018A00002D111F4907F50D0D00705D5CB0542BFAF
:1018B000E36B43F00103E363560704D51DB1E36B0B
:1018C00043F00203E363900704D51DB1E36B43F0DB
:1018D0000403E363130706D58E0600D41DB1E36B42
:1018E00043F00803E363E36B002B66D0950604D551
:1018F000880602D52046FFF781FF23685D69E26B09
:101900001107204602D415F040051AD0FFF7FEFD5E
:1019100023685A69520610D55A69606B22F040025A
:101920005A6150B1254B0365FEF704FF002844D0EF
:10193000606BBDE87040036D18472046FFF79CFFC1
:1019400070BDFFF799FFE56370BD160627D50D063C
:1019500025D594F83920212A2FD1A268B2F5805FCD
:10196000226A17D11188C1F308015960216979B938
:1019700002322262E28C013A92B2E284EAB9DA6877
:1019800022F08002DA60DA6842F04002DA6070BD6C
:101990000132EEE7511C216212785A60EAE75006E4
:1019A0000BD54A0609D5DA6822F04002DA60202316
:1019B00084F839302046FFF720FF70BDC1190008B8
:1019C00008B5806B0023C385C384FFF755FF08BDAE
:1019D0002DE9F04714228AB00DEB0200002100F03F
:1019E0008DFF0024564B01941A6BDFF86481554E2D
:1019F000554F42F004021A631A6B02F0040201927E
:101A0000019A02941A6B42F080021A631A6B02F078
:101A100080020292029A03941A6B42F001021A6346
:101A20001A6B02F001020392039A04941A6B42F0BB
:101A300002021A631B6B03F0020304932246404622
:101A40000321049BFEF768FF2246304640F23241F4
:101A5000FEF762FF2246384640F20141FEF75CFF86
:101A60004FF40053059305A9384B069340460125D2
:101A70004FF003090794FEF76FFE05A94046CDF825
:101A8000149006950794CDF82090FEF765FE05A901
:101A90003046059506940795FEF75EFE40F2124328
:101AA00005A93046059306950794CDF82090FEF7DA
:101AB00053FE202305A93046059306950794089404
:101AC000FEF74AFE402305A930464FF0020A05936F
:101AD00006940794FEF740FE4FF4607305A9304664
:101AE00005930694CDF81CA0FEF736FE05A93846EE
:101AF000059506950794CDF82090FEF72DFE4FF43E
:101B00008063059305A9112338460693079408942A
:101B1000FEF722FE802305A9404605930694CDF8E2
:101B20001CA0FEF719FE4FF44C7305A93846059327
:101B30000694CDF81CA0FEF70FFE0AB0BDE8F087B2
:101B40000038024000000240000402400000211062
:101B50000008024030B595B03422002107A800F0FB
:101B6000CDFE0021142202A800F0C8FE00251C4B67
:101B700000951A6C42F080521A641B6C194A03F0EB
:101B800080530093009B0195136823F4404343F472
:101B90008043136013680E9503F440430193019B47
:101BA00001230A9310230B930F934FF4A87302247D
:101BB000109307A80423119307940D94129413947F
:101BC000FEF7B4FF0F23029321464FF4805302A87F
:101BD0000394049505930695FEF7A4FE15B030BD59
:101BE000003802400070004008B5FEF70DFDFFF719
:101BF000B1FFFFF7EDFE00F073FC00F0D1FD00F047
:101C00009DFC00F0B5FC00F089FD00220221224875
:101C1000FEF782FE002210211F48FEF77DFE002203
:101C20004FF480611C48FEF777FE002201211B481B
:101C3000FEF772FE002201211948FEF76DFE002218
:101C400002211748FEF768FE00224FF48061134816
:101C5000FEF762FE1349144800F08CFE0A2264234A
:101C600011491248FFF724FD1148FFF787F9114881
:101C7000FFF784F900211048FFF7E4FB0C210E4820
:101C8000FFF7E0FB3C210D48FFF788F901220C49E2
:101C90000648FFF78BFDFEE700000240000402400B
:101CA0000008024046320008A5000020D4010020B0
:101CB000540100201401002094010020D4000020D1
:101CC000D0000020054A13785278303B303A03EBBD
:101CD000830302EB4303024A137070471D00002088
:101CE000D1000020F8B5454D454A2B78454C127877
:101CF000E2540133DBB20A2B08BF00230D2A2B70FC
:101D000006D1414A3F480A2100F000FE00232B7013
:101D100023786C2B17D1A379302B01D0332B12D120
:101D20003A4A3B4E00231370184601279E46D9B20B
:101D3000072950D100B11170334A32480A2100F00E
:101D4000E5FD00232B7023786A2B15D1A278A2F130
:101D50003003012B10D861782E4B302948D1002157
:101D60001970302A48D100225A700A21264A254883
:101D700000F0CCFD00232B702378742B1BD16178ED
:101D80002F2918D9A2782F2A15D9234B19705A70E8
:101D9000FFF798FF214B1B481A78214B1B789A427A
:101DA000204B2CBF012200221A700A21164A00F093
:101DB000ADFD00232B702378692B05D16378302B80
:101DC00002BF194B00221A7001220D491748BDE8C5
:101DD000F840FFF7EBBCE1184978302904D103F84B
:101DE00006E001330120A2E7332908BF9F55F8E739
:101DF0003129B6D10121B3E70122B5E7B2000020B5
:101E0000D0000020120000203B320008B00000206B
:101E1000B5000020B30000201D000020D1000020EC
:101E20001C000020AF000020B1000020D4010020E1
:101E30009C4B98422DE9F041054640F06F819A4C49
:101E40002378002B40F06A814FF480719748FEF7A9
:101E50005DFDB8B1964B1A78A2B9964A117800295F
:101E60000CBF0121002111704FF001021A7040F0E7
:101E70008C829149914800F07DFD0A228F4990485B
:101E8000FFF775FC4FF480718848FEF73FFD08B9F5
:101E9000874B18704FF400718448FEF737FDB8B1D6
:101EA000834B5A78A2B9834A517800290CBF01218B
:101EB000002151704FF001025A7040F08F82814929
:101EC0007E4800F057FD0A227C497D48FFF74FFC11
:101ED0004FF400717548FEF719FD08B9744B58703E
:101EE0004FF480717848FEF711FDB8B1704B9A78C5
:101EF000A2B9704A917800290CBF0121002191708C
:101F00004FF001029A7040F06B8270496B4800F00C
:101F100031FD0A2269496A48FFF729FC4FF48071B4
:101F20006948FEF7F3FC08B9614B98708021664858
:101F3000FEF7ECFCB8B15E4BDA78A2B95D4AD17815
:101F400000290CBF01210021D1704FF00102DA708D
:101F500040F048825E49594800F00CFD0A2257497A
:101F60005748FFF704FC80215748FEF7CFFC08B91B
:101F70004F4BD87080215748FEF7C8FCB8B14C4B86
:101F80001A79A2B94B4A117900290CBF012100210D
:101F900011714FF001021A7140F026824E494748F4
:101FA00000F0E8FC0A2245494548FFF7E0FB8021A4
:101FB0004848FEF7ABFC08B93D4B18714FF400716F
:101FC0004148FEF7A3FCB8B1394B5A79A2B9394A56
:101FD000517900290CBF0121002151714FF00102FC
:101FE0005A7140F003823D49344800F0C3FC0A2294
:101FF00032493348FFF7BBFB4FF400713248FEF71C
:1020000085FC08B92A4B587120212848FEF77EFC30
:10201000B8B1274B9A79A2B9314A117800290CBF7F
:102020000121002111704FF001029A7140F0E0810E
:102030002C49224800F09EFC0A2220492048FFF744
:1020400096FB20211948FEF761FC08B9184B9871DE
:1020500010211648FEF75AFCB8B1154BDA79A2B92F
:102060001F4A517800290CBF0121002151704FF007
:102070000102DA7140F0BE811B49104800F07AFC81
:102080000A220E490E48FFF772FB10210748FEF79F
:102090003DFC08B9064BD87140210B48FEF736FCD1
:1020A000A0BB23E054010020B10000200004024046
:1020B00008000020B500002090310008A500002095
:1020C000D40100209A31000800000240A431000829
:1020D000AE31000800080240B8310008C2310008E3
:1020E000B3000020CC310008D6310008A84A537A4A
:1020F00063B9012353720A21A64AA748237000F04E
:1021000005FC0A22A449A548FFF731FB4021A44859
:10211000FEF7FCFB10B19E4B00225A72A14BA24E5F
:102120009D42A24D40F02281A14BA24A5B6AA24F80
:10213000C3F38703337083B929787C2903D11178DD
:1021400009B1013911702C78191B002980F2128114
:10215000117891B1091B0B4408E07C2BF3D129784D
:102160000029F0D11378462B01D001331370934B23
:10217000197813789942C0F006810123904C3B7086
:1021800023789BBB8F4B1A78012A984603D10221F2
:102190008348FEF7C1FB98F800201AB90221804855
:1021A000FEF7BAFB98F80320012A03D110217C48DE
:1021B000FEF7B2FB98F803201AB910217848FEF711
:1021C000ABFB00224FF480617548FEF7A5FB0022AF
:1021D00001217D48FEF7A0FB012211467B48FEF756
:1021E0009BFB012202217948FEF796FB2378012B05
:1021F0006FD1744B5A78012A984603D1022168485E
:10220000FEF78AFB98F801201AB902216448FEF70C
:1022100083FB98F80420012A03D110216048FEF7BF
:102220007BFB98F804201AB910215D48FEF774FB77
:1022300001215B48FEF76AFB10B1554B00221A7270
:1022400001215748FEF762FB48B9514A137A33B966
:102250003B78B3FA83F35B093B70012313725C4B49
:102260001A78012A984609D14FF480614C48FEF74C
:1022700053FB584B1B684FF4FA725A6398F80020CE
:102280004AB94FF480614648FEF746FB514B1B6844
:102290004FF461725A633A78012A04D14FF4806195
:1022A0004948FEF739FB3A7822B94FF48061464835
:1022B000FEF732FB012211464348FEF72DFB0022B8
:1022C00001214248FEF728FB012202213F48FEF788
:1022D00023FB2178022942D13A4FBA78012A02D150
:1022E0002F48FEF719FBBA781AB902212C48FEF7DD
:1022F00013FB7A79012A03D110212948FEF70CFB40
:102300007A791AB910212648FEF706FB304F7A7801
:10231000012A09D14FF480612148FEF7FDFA2D4BC7
:102320001B684FF4FA725A637A784AB94FF48061A5
:102330001B48FEF7F1FA274B1B684FF461721A64D1
:10234000012211462048FEF7E7FA012211461F48F4
:10235000FEF7E2FA002202211C48FEF7DDFA23789C
:102360000133DBB2032B08BF0023237033782B70BB
:10237000BDE8F0813FF4FBAE107846283FF4F7AE9D
:10238000001B0344F2E60023F8E6134972E500BFA0
:1023900008000020E0310008A5000020D401002042
:1023A0000000024014010020A4000020BB00002017
:1023B000000800401C000020AF000020D1000020D9
:1023C000BC000020B50000200004024000080240CC
:1023D000B300002094010020EB31000806496FE5AE
:1023E000064993E50649B6E50649D8E50649FBE501
:1023F00006491EE6064940E6F5310008FF310008AF
:1024000009320008133200081D3200082732000884
:10241000313200087047000007B50E4B00210091D3
:102420005A6C42F480425A645A6C02F48042009220
:10243000009A01911A6C42F080521A641B6C03F0EE
:10244000805301930520019BFEF70AF903B05DF864
:1024500004FB00BF003802407047FEE7FEE7FEE7DE
:10246000FEE7704770477047FEF7E8B80148FEF78F
:10247000BBBD00BF140100200148FEF7B5BD00BF81
:10248000540100200148FFF7F9B900BFD401002032
:1024900008B50A4B1968024609B909491960186854
:1024A000694602448A4206D900F0FEF90C23036013
:1024B0004FF0FF3008BD1A6008BD00BFC00000200B
:1024C00018020020054BD3F8882042F47002C3F8AC
:1024D00088204FF000629A60704700BF00ED00E076
:1024E00010B58CB00021242203A800F007FA11488F
:1024F000114B002480E8180040F2F313C36003A9D5
:102500000123019402948460046184610393059320
:102510000993FEF7A5FE08B1FFF77CFF01A9054866
:1025200001940294FEF7AEFF08B1FFF773FF0CB001
:1025300010BD00BFD4000020000800400A480B492D
:1025400008B5092380E80A0042F20F720023836075
:10255000C26003618361FEF74FFE18B1BDE8084019
:10256000FFF758BF08BD00BF140100200044014020
:102570000A480B4908B540F2E73380E80A0042F206
:102580000F7200238360C26003618361FEF734FE33
:1025900018B1BDE80840FFF73DBF08BD5401002059
:1025A000004801400368B3F1804F82B00BD1002393
:1025B0000193064B1A6C42F001021A641B6C03F083
:1025C00001030193019B02B0704700BF0038024035
:1025D00010B5044688B01422002103A800F08EF93B
:1025E0002268124B9A421FD103F50C33002101914E
:1025F0001A6C0F4842F004021A641A6C02F00402CA
:102600000192019A02911A6B42F002021A631B6B4B
:1026100003F002030293029BC023039303A9022346
:1026200004930793FEF798F808B010BD0008004027
:102630000004024007B50368164A934215D1164BB1
:1026400000220092596C41F4003159645B6C03F430
:102650000033009319200121009BFEF713F8192085
:10266000FEF744F803B05DF804FB0C4A9342F9D13D
:10267000094B00220192596C41F4802159645B6C32
:1026800003F4802301931A200221019BFDF7FAFF36
:102690001A20E5E7004401400038024000480140AC
:1026A00070B5044688B01422002103A800F026F972
:1026B0002368B3F1804F2BD103F50E33002401942E
:1026C0001A6B144842F002021A631A6B02F00202FB
:1026D0000192019A02941A6B42F001021A631B6B79
:1026E00003F001030293029B02260423012503A9A0
:1026F000039304960795FEF72FF84FF4004303A9C0
:10270000054803930496059406940795FEF724F86C
:1027100008B070BD000402400000024010B5002463
:102720008AB01C22214603A80194029400F0E6F826
:102730001A48A7234FF0804280E80C0042F20F7342
:102740008460C36004618461FEF770FD08B1FFF727
:1027500061FE01A9114801940294FEF793FE08B1AD
:10276000FFF758FE0022602303A90C48039304924C
:1027700005920792FEF7F6FD08B1FFF74BFE0C221B
:102780000DEB02010548FEF7EDFD08B1FFF742FE33
:102790000248FFF785FF0AB010BD00BF940100207A
:1027A00008B50B480B4B4FF4E13E80E808400C2283
:1027B00000238360C360036142618361C361FEF7EC
:1027C00049FF18B1BDE80840FFF724BE08BD00BFAF
:1027D000D40100200044004010B5044688B0142203
:1027E000002103A800F08AF82268184B9A422AD1E7
:1027F00003F5FA33002401941A6C154842F40032B0
:102800001A641A6C02F400320192019A02941A6B53
:1028100042F001021A631B6B03F001030293029B57
:102820000C230393022304930323069303A9072392
:102830000793FDF791FF262022462146FDF722FF50
:102840002620FDF753FF08B010BD00BF0044004034
:1028500000000240DFF834D0002103E00C4B5B584D
:10286000435004310B480C4B42189A42F6D30B4AA2
:1028700002E0002342F8043B094B9A42F9D3FFF7E8
:1028800021FE00F017F8FFF7AFF9704700000220B3
:10289000AC320008000000208800002088000020E2
:1028A00018020020FEE70000014B1868704700BFC7
:1028B0002400002070B50D4E0D4CA41BA410002563
:1028C000A54209D10B4E0C4C00F056FCA41BA410E1
:1028D0000025A54205D170BD56F825309847013531
:1028E000EEE756F8253098470135F2E7A4320008A4
:1028F000A4320008A4320008A832000802440346AB
:10290000934200D1704703F8011BF9E70CB430B5CE
:10291000174B0C1E9DB01D6808DA8B232B604FF0FF
:10292000FF301DB0BDE8304002B070474FF4027375
:10293000ADF8143014BF04F1FF332346049307931A
:102940004FF6FF7302900690ADF81630209A21AB37
:1029500002A92846019300F071F8431CBCBF8B23E9
:102960002B60002CDDD0029B00221A70D9E700BF3B
:1029700024000020034611F8012B03F8012B002A44
:10298000F9D170472DE9F0478E689E4282460C4689
:102990009146984635D88A8912F4906F31D02568CF
:1029A00009696F1A6569022305EB450595FBF3F587
:1029B00008F101033B449D4238BF1D46530531D504
:1029C000294600F039FB064650B90C23CAF80030FE
:1029D000A38943F04003A3814FF0FF30BDE8F087A7
:1029E0003A46216900F0B4FAA38923F4906343F0D6
:1029F0008003A381266165613E44ED1B2660A560CE
:102A00004646464528BF464632464946206800F0BD
:102A1000AAFAA3689B1BA36023681E4426600020BB
:102A2000BDE8F0872A4600F065FB06460028E1D1A4
:102A30002169504600F0B2FAC7E700002DE9F04FD7
:102A40009DB0804603938B891C060D4616460FD514
:102A50000B696BB9402100F0EFFA2860286128B9B2
:102A60000C23C8F800304FF0FF30C5E040236B6105
:102A70000023099320238DF8293030238DF82A3044
:102A80004FF0010B37463C4614F8013B002B3CD17C
:102A9000B7EB060A0BD05346324629464046FFF7AD
:102AA00071FF013000F0A380099B534409933B78E8
:102AB000002B00F09C8000234FF0FF32049307931B
:102AC000059206938DF853301A93052221785048C9
:102AD000FDF79EFB671C049BD8B9D90644BF202292
:102AE0008DF853201A0744BF2B228DF853202278EB
:102AF0002A2A16D0079A00210A20274601343B785B
:102B0000303B092B51D9C9B111E0252BC0D0274644
:102B1000B9E73F4A801A0BFA00F0184304903C468C
:102B2000D3E7039A111D12680391002A01DB079273
:102B300004E0524243F00203079204933B782E2BA9
:102B40000ED17B782A2B07F1010132D1039B1A1D8C
:102B50001B680392002BB8BF4FF0FF330237059379
:102B60002C4C397803222046FDF752FB38B1402324
:102B7000001B03FA00F0049B0343049301373978E8
:102B800025488DF8281006227E1CFDF741FB002801
:102B900035D0224BFBB9039B073323F007030833DF
:102BA0000393099B4B4409936CE700FB023201211C
:102BB000A3E70023059318460A240F4601313A780B
:102BC000303A092A03D9002BCAD00590C8E704FB84
:102BD00000200123F1E703AB00932A46104B04A920
:102BE0004046AFF30080B0F1FF3F8146D9D1AB89B9
:102BF0005B063FF538AF09981DB0BDE8F08F03AB19
:102C000000932A46064B04A9404600F081F8EAE703
:102C1000683200086E3200087232000800000000BE
:102C2000852900082DE9F04791461F468A680B69FF
:102C3000DDF820809342B8BF1346C9F8003091F800
:102C4000432006460C4612B10133C9F80030236810
:102C5000990642BFD9F800300233C9F80030256820
:102C600015F0060507D104F1190AE368D9F8002028
:102C70009B1A9D4229DB94F843302268003318BF29
:102C8000012392062ED404F1430239463046C04750
:102C9000013021D02368E568D9F8002003F006034D
:102CA000042B08BFAD1AA36822690CBF25EAE5759D
:102CB00000259342C4BF9B1AED184FF000091A3447
:102CC0004D451BD10020BDE8F0870123524639460F
:102CD0003046C047013003D14FF0FF30BDE8F087E8
:102CE0000135C2E7E1185A1C302081F84300224424
:102CF00094F8451082F843100233C4E701232246BA
:102D000039463046C0470130E6D009F10109D7E71E
:102D10002DE9F04317460A7E85B06E2A984606468E
:102D20000C460C9B01F1430E00F0BC801AD8632ABC
:102D30002ED00AD8002A00F0C880582A00F08A80D5
:102D400004F1420584F842202AE0642A01D0692A6D
:102D5000F6D121681A6811F0800F23D0111D196077
:102D6000136827E0732A00F0B48008D86F2A2AD0AD
:102D7000702AE5D10A6842F020020A6003E0752A51
:102D800021D0782ADCD1782284F845206E4964E08D
:102D90001A6801F14205111D1960136884F8423068
:102DA0000123A3E011F0400F02F104011960D7D014
:102DB000B2F90030002B03DA2D225B4284F8432065
:102DC00062490A2217E02068196810F0800F03D0CA
:102DD000081D18600B6806E010F0400F01F10400B8
:102DE0001860F7D00B8859496F2A14BF0A220822AD
:102DF000002084F843006568A560002DC0F29C8027
:102E0000206820F004002060002B3FD1002D40F00E
:102E100095807546082A0BD12368DA0708D52369FF
:102E200062689A42DEBF302305F8013C05F1FF35A8
:102E3000AEEB05032361CDF800803B4603AA214693
:102E40003046FFF7EFFE013055D14FF0FF3005B0AF
:102E5000BDE8F08381F845203C492268186812F0EB
:102E6000800F00F104051D6001D0036802E05506E3
:102E7000FBD50388D00744BF42F0200222601BB973
:102E8000226822F0200222601022B1E77546B3FBCF
:102E9000F2F002FB1033CB5C05F8013D034600283D
:102EA000F5D1B7E708681A68496910F0800F04D0B7
:102EB000101D18601368196007E010F0400F02F150
:102EC000040018601368F6D019800023236175464A
:102ED000B1E71A68111D196015686268002128465B
:102EE000FDF796F908B1401B606063682361002319
:102EF00084F843309FE723692A4639463046C04765
:102F00000130A2D023689B0707D5002504F11909D9
:102F1000E368039A9B1A9D4205DBE068039B984295
:102F2000B8BF184693E701234A4639463046C047A2
:102F300001308AD00135EBE7002BA7D10B7884F85C
:102F4000423004F1420565E78A3200087932000810
:102F500010B5431E0A44914200D110BD11F8014B37
:102F600003F8014FF7E7884210B501EB020303D8DD
:102F7000421E99420CD110BD9842F9D28118D21A42
:102F8000D34200D110BD13F8014D01F8014DF7E710
:102F900011F8014B02F8014FEBE7000038B5054688
:102FA000002945D051F8043C0C1F002BB8BFE41891
:102FB00000F0D6F81F4A1368104633B963601460F6
:102FC0002846BDE8384000F0CCB8A3420CD92168AF
:102FD0006218934204BF1A685B68636004BF5218AA
:102FE00022600460ECE713465A680AB1A242FAD99B
:102FF00019685818A0420BD1206801445818824221
:103000001960DDD1106852685A6001441960D7E731
:1030100002D90C232B60D3E7206821188A4204BF11
:1030200011685268626004BF091821605C60C7E7DC
:1030300038BD00BFC400002070B5CD1C25F00305CD
:1030400008350C2D38BF0C25002D064601DBA942A2
:1030500003D90C233360002070BD00F081F8234AAF
:103060001468214691B9224C23681BB9304600F000
:1030700067F820602946304600F062F8431C26D1EC
:103080000C233360304600F06CF8E4E70B685B1B00
:103090001AD40B2B0FD90B60CD50CC18304600F052
:1030A00060F804F10B00231D20F00700C31A1BD0A9
:1030B0005A42E25070BD8C420DBF63684B6863603A
:1030C000136018BF0C46E9E70C464968CAE7C41C00
:1030D00024F00304A04205D0211A304600F030F855
:1030E0000130CDD02560D9E770BD00BFC4000020FD
:1030F000C8000020F8B5074614460E4621B911460F
:10310000BDE8F840FFF798BF22B9FFF747FF254613
:103110002846F8BD00F026F884420FD921463846EB
:10312000FFF78AFF05460028F2D031462246FFF716
:103130000FFF31463846FFF731FFE9E73546E7E74D
:1031400038B5064C0023054608462360FFF7A0F972
:10315000431C02D1236803B12B6038BD1402002048
:103160007047704751F8040C0028A0F10400BCBF60
:103170000B58C01870470000F8B500BFF8BC08BC79
:103180009E467047F8B500BFF8BC08BC9E46704725
:103190006C313120202020200A006C323120202088
:1031A00020200A006C333120202020200A006C34BB
:1031B0003120202020200A006C35312020202020C2
:1031C0000A006C363120202020200A006A3131208C
:1031D000202020200A006A323120202020200A00EE
:1031E00069312020202020200A0D006C3130202061
:1031F0002020200A006C323020202020200A006C81
:10320000333020202020200A006C34302020202061
:10321000200A006C353020202020200A006C363037
:1032200020202020200A006A313020202020200A7F
:10323000006A323020202020200A00202020202078
:1032400020202020200073746120202020200A00EC
:103250000000000000000000010203040607080946
:103260000000000001020304232D302B2000686CB5
:103270004C00656667454647003031323334353699
:1032800037383941424344454600303132333435D2
:0C329000363738396162636465660000FF
:08329C0044D0FF7F0100000097
:0432A400F501000828
:0432A800D101000848
:1032AC000100000010000000000000000000000001
:1032BC0000012020202020202020200A1E20200079
:1032CC000024F40028000020000000000000000092
:1032DC0000000000000000000000000000000000E2
:1032EC0000000000000000000000000000000000D2
:1032FC0000000000000000000000000000000000C2
:10330C0000000000000000000000000000000000B1
:10331C0000000000000000000000000000000000A1
:08332C00000000000000000099
:040000050800285572
:00000001FF
